:100000000C9434050C9453050C9453050C94651111
:100010000C9453050C9453050C9453050C94530500
:100020000C9453050C9453050C9453050C945305F0
:100030000C9453050C9453050C9453050C945305E0
:100040000C9453050C9453050C9474110C94A51145
:100050000C9453050C9453050C9453050C945305C0
:100060000C9453050C9453050C9453050C945305B0
:100070000C9453050C9453050C9444120C94771271
:100080000C9453050C9453050C945305036EDB3606
:100090003D9A9999993DABAAAA2A3E000000803F5B
:1000A000084AD73B3BCE016E84BCBFFDC12F3D6CDF
:1000B00074319ABD56833DDA3D00C77F11BED9E445
:1000C000BB4C3E916BAAAABE000000803F072C7A71
:1000D000A5BA6CC590DA3B9365FC8BBC53F810FD58
:1000E0003C5692834DBD879D3AB63DCBC9BF5BBEA2
:1000F00073DA0FC93F01B202FFFF0190040923A187
:1001000035016A02060001600800000000000000DE
:100110000000600440000000016202000000600472
:1001200000400000037B034CCD6C03AB03365676D6
:1001300000680402CB47A202180400058BC1010C21
:100140000400000000037F060CC92C9797970389D1
:1001500003264666006C02200002400400000000F6
:100160000244040000000002480400000000024CA9
:1001700004000000000250040000000002540400CB
:1001800000000002580400000000025C04000000AF
:100190000002BC040000000001EC04000040000369
:1001A0007F060CC92C9797970402030D355D04094F
:1001B00004872D353D00A3010000000001078601E2
:1001C000FE074105F120283038077E01300746013F
:1001D0009A074704F1283038076C04F128303802B8
:1001E00016020009FB00003E000B00360001000271
:1001F0000003000000650054FFEF0000FA80000BD0
:100200001282000100020000000000000000000057
:100210000000000000280000FFFF4581FFFFFA7288
:1002200000000000000003E80000000100017FFF63
:10023000FFFE8001001B0000000000000000000025
:1002400000000000003E03304000000002CAE30945
:100250003E80000020000000000000004000000080
:100260006000000041FF000000000B2A000016554E
:1002700000002182FD872650FD800000001F000045
:1002800000058000000000000001000000020000E6
:1002900000030000400000000000046F000265320F
:1002A00000005EC0400000000000000000000000F0
:1002B00000000000FB8C6F5DFD5D08D9007C733B86
:1002C000006C12CC3200139D3200D0D632000800F0
:1002D000400001F4FFE68079020000000000D0D663
:1002E00000002710FB00000040000000000000009C
:1002F00000000000000000010000000000000100FC
:10030000010000000000FA36FFBC308E0005FBF053
:10031000FFD95BC8FFD09ABE000010A9FFF41EB23F
:1003200000CEBBF700000001000000040002000244
:100330000200000CFFC280000001800000CF80009E
:100340004000000000000001000000000000060066
:100350000000001400000000000000000000000089
:10036000000000000000000000000000000000008D
:10037000000000000000000000000000000000007D
:100380000000000000000000033F68B6793528BC7B
:10039000C67ED16C80000000400000000000B26A00
:1003A00000000000000000000000000000003FF01E
:1003B000000000300000000000000000000000000D
:1003C000000000000000000000000000000000002D
:1003D000000000000000254D002F706D000005AEEC
:1003E000000C02D00000000000650054FFEF000088
:1003F00000000000000001000044000000000C00AC
:100400000000010000000000006500000054000032
:10041000FFEF0000000000000000000000000000EE
:10042000000000004000000000000000000000008C
:10043000000000004000000000000000000000007C
:1004400000000000000000010000000200000000A9
:10045000000000000000000000000000000000009C
:10046000000000000000000000000000000000008C
:1004700000000000001B0000000000000000000061
:10048000000000000000000000000000000000006C
:10049000000000000000000000000000000000005C
:1004A00040000000001B00000000000000000000F1
:1004B000000000000000000000000000000000003C
:1004C000000000000000000000000000000000002C
:1004D000000000000000000000000000000000001C
:1004E00000000000D8DCBAA2F1DEB2B8B4A8819155
:1004F000F74A907F916AF3F9DBA8F9B0BAA080F2CD
:10050000CE81F3C2F1C1F2C3F3CCA2B280F1C6D85E
:1005100080BAA7DFDFDFF2A7C3CBC5B6F087A2940E
:100520002448703C95406834589B78A2F183922D02
:10053000557DD8B1B4B8A1D09180F270F370F27C3F
:1005400080A8F101B09887D943D886C988BAA1F2AA
:100550000EB89780F1A9DFDFDFAADFDFDFF2AAC5DF
:10056000CDC7A90CC92C97979797F1A989264666FC
:10057000B0B4BA80ACDEF2CAF1B28C02A9B698006F
:10058000890E161EB8A9B4992C547CB08AA8963648
:100590005676F1B9AFB4B083C0B8A89711B18F98AF
:1005A000B9AFF0240844106418F1A329557DAF8336
:1005B000B593AFF0002850F1A3869F61A6DADEDF85
:1005C000D9FAA38696DB31A6D9F8DFBAA68FC2C5C1
:1005D000C7B28CC1B8A2DFDFDFA3DFDFDFD8D8F17D
:1005E000B8A8B286B4980D355DB8AA98B0872D35F5
:1005F0003DB2B6BAAF8C96198F9FA70E161EB49A4D
:10060000B8AA872C547CB9A3DEDFDFA3B180F2C483
:10061000CDC9F1B8A9B499830D355D89B9A32D551C
:100620007DB593A30E161EA92C547CB8B4B0F197D7
:1006300083A81184A50998A383F0DA2408441064E0
:1006400018D8F1A529557DA58595021A2E3A565A36
:100650004048F9F3A3D9F8F09883240844106418AB
:100660009782A8F111F098A2240844106418DAF3D4
:10067000DED883A59401D9A302F1A2C3C5C7D8F1DE
:100680008492A24DDA2AD84869D92AD86855DA3234
:10069000D85071D932D8705DDA3AD85879D93AD869
:1006A0007893A34DDA2AD84869D92AD86855DA321E
:1006B000D85071D932D8705DDA3AD85879D93AD849
:1006C00078A88A9AF02850789EF38818F19F1D9890
:1006D000A8D908D8C89F129EF315A8DA1210D8F12D
:1006E000AFC8978734B5B994A421F3D922D8F22D95
:1006F000F3D92AD8F235F3D932D881A4606061D910
:1007000061D86C6869D969D8747071D971D8B1A38E
:1007100084193D5DA3831A3E5E931030811011B899
:10072000B0AF8F94F2DA3ED8B49AA88729DAF8D815
:10073000879A35DAF8D8879A3DDAF8D8B1B9A4980B
:1007400085022E56A581000C14A397B08AF12DD9ED
:1007500028D84DD948D86DD968D8B1840DDA0ED8CB
:10076000A32983DA2C0ED8A3844983DA2C4C0ED823
:10077000B8B0A88A9AF520AADADFD8A840AAD0DAB9
:10078000DED8A860AADAD0DFD8F19786A8319B0618
:100790009907AB9728889BF00C201440B8B0B4A8F8
:1007A0008C9CF0042851791D301438B282ABD0985B
:1007B0002C505078789BF11AB0F08A9CA829517976
:1007C0008B2951798A2470598B2058718A44693851
:1007D0008B3940688A6448318B304960A58820098C
:1007E00071584468113964493019F1AC002C547CBB
:1007F000F08CA804285078F1889726A85998AC8CDA
:1008000002264666F0899CA82951792470594469CA
:1008100038644831A98809205970AB11384069A85B
:10082000193148608CA83C415C207C00F187981904
:1008300086A86E767EA999882D557D9EB9A38A22B9
:100840008A6E8A568A5E9FB183062646660E2E4EB3
:100850006E9DB8AD002C547CF2B18CB499B9A32D27
:10086000557D8191AC38AD3AB58391AC2DD928D85E
:100870004DD948D86DD968D88C9DAE29D904AED849
:1008800051D904AED879D904D881F39DAD008DAE8D
:100890001981ADD901D8F2AEDA26D88E912983A775
:1008A000D9ADADADADF32AD8D8F1B0AC89913E5EEB
:1008B00076F3AC2E2EF1B18C5A9CAC2C2828289CB7
:1008C000AC3018A8988128343C9724A728343C9C45
:1008D00024F2B089AC912C4C6C8A9B2DD9D8D8517C
:1008E000D9D8D879D9D8D8F19E88A331DAD8D89177
:1008F0002DD928D84DD948D86DD968D8B18393352A
:100900003D8025DAD8D88569DAD8D8B49381A32870
:10091000343CF3AB8BF8A391B609B4D9ABDEFAB093
:10092000879CB9A3DDF1A3A3A3A395F1A3A3A39DE2
:10093000F1A3A3A3A3F2A3B49080F2A3A3A3A3A3C0
:10094000A3A3A3A3A3B2A3A3A3A3A3A3B087B5996F
:10095000F1A3A3A398F1A3A3A3A397A3A3A3A3F392
:100960009BA3A3DCB9A7F1262626D8D8FF00407A9E
:1009700010F35A00A0724E18090010A5D4E8000028
:10098000E87648170000E40B54020000CA9A3B00C6
:100990000000E1F505000080969800000040420F3D
:1009A000000000A08601000000102700000000E801
:1009B00003000000006400000000000A00000000C6
:1009C000000100000000002C76D888DC674F082367
:1009D000DFC1DFAE59E1B1B796E5E3E453C63AE6CD
:1009E00051997696E8E6C28426EB898C9B62ED40AD
:1009F0007C6FFCEFBC9C9F40F2BAA56FA5F49005FC
:100A00005A2AF75C936B6CF9676DC11BFCE0E40D2F
:100A100047FEF520E6B500D0ED902E030094357723
:100A2000050080841E080000204E0A000000C80C4B
:100A3000333333330F986E12831141EF8D211489B4
:100A40003BE65516CFFEE6DB18D1844B381BF77C0E
:100A50001D901DA4BBE424203284725E228100C953
:100A6000F124ECA1E53D270011241FBECFEFD0E11A
:100A7000DEBFCDBF11E0A0E0B1E0E6E9F5E300E0C4
:100A80000BBF02C007900D92AA30B107D9F711E051
:100A9000AAE0B1E001C01D92AC3EB107E1F70E94AF
:100AA0004B060C94C91A0C9400001092710088E453
:100AB00080937000089594EA909374004FEF50E093
:100AC00060E070E0E4E7F0E09081992334F0415079
:100AD000510961097109C0F705C04115510561054A
:100AE000710541F190917100987F983011F090312B
:100AF00019F58093730084E8809374008FEF90E081
:100B0000A0E0B0E0E4E7F0E0208122232CF00197A0
:100B1000A109B109C8F704C00097A105B10571F09A
:100B200090917100987F983159F081E0903449F4A8
:100B300080E0089581E0089581E0089581E00895BE
:100B400080E008951F93CF93DF93E4E7F0E094EA09
:100B500040E050E0A1E7B0E0C3E7D0E064E874E92A
:100B600090839A011081112334F02F5F3F4F11E0E1
:100B700020303107B9F72C91287F283011F020312F
:100B800079F7888360839A011081112334F02F5FF5
:100B90003F4F11E020303107B9F72C91287F2032E8
:100BA00011F0283561F470839A01108114FFD8CFB9
:100BB0002F5F3F4F11E020303107B9F7D1CFDF91E0
:100BC000CF911F9108950E945B05089584E9809359
:100BD000740080E090E0E4E7F0E0208124FF05C0AD
:100BE000019621E080309207C1F708958093730049
:100BF00084E8809374008FEF90E0A0E0B0E0E4E739
:100C0000F0E0208122232CF00197A109B109C8F757
:100C100004C00097A105B10541F090917100987F43
:100C200081E0983219F480E0089581E0089584EC21
:100C3000809374008FEF90E0A0E0B0E0E4E7F0E094
:100C4000208122232CF00197A109B109C8F704C023
:100C50000097A105B10519F080917300089580E017
:100C6000089584E8809374008FEF90E0A0E0B0E0F6
:100C7000E4E7F0E0208122232CF00197A109B109DB
:100C8000C8F704C00097A105B10519F08091730061
:100C9000089580E00895CF93DF93CDB7DEB7CA54AF
:100CA000D0400FB6F894DEBF0FBECDBF1A821982B6
:100CB0001C821B821E821D8218861F821A8619863C
:100CC0001C861B8680E090E0DC018D879E87AF87C5
:100CD000B88B898B9A8BAB8BBC8B8D8B9E8BAF8BA0
:100CE000B88F898F9A8FAB8FBC8F8D8F9E8FAF8F70
:100CF000B8A389A39AA3ABA3BCA340E050E060E8EB
:100D00007FE34DA35EA36FA378A789A79AA7ABA79C
:100D1000BCA78DA79EA7AFA7B8AB89AB9AABABAB6F
:100D2000BCAB8DAB9EABAFABB8AF89AF9AAFABAF3F
:100D3000BCAF21968CAF9DAFAEAFBFAF219780E126
:100D400090E00E94CF1178940E94C10B8FEF90E742
:100D5000A2E081509040A040E1F700C000000E9456
:100D60004E0D0E943C0DAFE3BCE91197F1F700C0B6
:100D700000000F2EF9E32F2E3324F02D2C0E3D1EF4
:100D80000F2EFDE36F2E7724F02D6C0E7D1E0F2E9F
:100D9000F0E04F2EF1E05F2EF02DCE018596BE01E2
:100DA000675D7F4FAE01435D5F4F9E012F5C3F4FFC
:100DB0000E940311882309F453C000D000D06DA114
:100DC0007EA18FA198A529A53AA54BA55CA5EDA468
:100DD000FEA40FA518A9A9A8BAA8CBA8DCA8EDB7AE
:100DE000FEB732822182748263820F2EF5E38F2E4A
:100DF0009924F02D8C0E9D1E0E94D70F0F900F90FE
:100E00000F900F90CE010196BE016D5F7F4FAE0136
:100E10004B5F5F4F9E01295F3F4F8E01075F1F4F62
:100E20000F2EFBE0EF2EFF24F02DEC0EFD1E0E9496
:100E3000F20BCE010D96BE016F5E7F4FAE014B5E91
:100E40005F4F9E01275E3F4F8E01035E1F4F0F2EA7
:100E5000F1E2EF2EFF24F02DEC0EFD1E0E945C0C43
:100E60008FEF96E7A1E081509040A040E1F700C0ED
:100E700000006D857E858F85988943E025E08E0191
:100E80000F5B1F4F0E943216C8010E94111280E2B0
:100E90000E94001269897A898B899C8943E025E048
:100EA0008E010F5B1F4F0E943216C8010E94111263
:100EB00080E20E9400126D897E898F89988D43E0BF
:100EC00025E08E010F5B1F4F0E943216C8010E9461
:100ED000111280E20E9400126DA97EA98FA998AD1F
:100EE00043E025E08E010F5B1F4F0E943216C801C0
:100EF0000E94111280E20E94001269AD7AAD8BADA2
:100F00009CAD43E025E08E010F5B1F4F0E9432161F
:100F1000C8010E94111280E20E940012D3016D915B
:100F20007D918D919C9143E025E08E010F5B1F4FD9
:100F30000E943216C8010E94111280E20E94001223
:100F4000698D7A8D8B8D9C8D43E025E08E010F5B42
:100F50001F4F0E943216C8010E94111280E20E94A7
:100F600000126D8D7E8D8F8D98A143E025E08E015E
:100F70000F5B1F4F0E943216C8010E94111280E2BF
:100F80000E94001269A17AA18BA19CA143E025E0F7
:100F90008E010F5B1F4F0E943216C8010E94111272
:100FA00080E20E940012C2010E941112F6CEDF926E
:100FB000EF92FF920F931F93CF93DF93E82ED62EDD
:100FC000C42F052F662359F180ED0E945B058E2DFD
:100FD0000E94F60583E08A95F1F7000081ED0E94FA
:100FE0005B05EC2EF02E00E010E0CD2DD0E0219737
:100FF0000C171D0729F40E943106F701808304C0F5
:101000000E941706F70180830F5F1F4F0894E11CB1
:10101000F11C0D1568F3CD2D0E94E60501C0C0E05E
:101020008C2FDF91CF911F910F91FF90EF90DF9068
:101030000895AB0161E00E94D7070895FF920F93D6
:101040001F93CF93DF93C82F162F042FF52E6623FF
:1010500089F080ED0E945B058C2F0E94F605C02F61
:10106000DF2D00E089910E94F6050F5F0117D1F78F
:101070000E94E605DF91CF911F910F91FF90089597
:10108000CF93DF930F92CDB7DEB7698361E0AE01F6
:101090004F5F5F4F0E941E080F90DF91CF91089520
:1010A000EF92FF920F931F93CF93DF930F92CDB7E1
:1010B000DEB7062F142F7901442341F1BE016F5F83
:1010C0007F4F0E941908882311F1402F50E0411BE7
:1010D00051094F5F5F4F21E030E002C0220F331F04
:1010E0001A95E2F721503040042E02C0220F331F20
:1010F0000A94E2F71981212330E0B90102C0759505
:1011000067954A95E2F7F701608301C080E00F9090
:10111000DF91CF911F910F91FF90EF900895EF9283
:10112000FF921F93CF93DF930F92CDB7DEB7162FA9
:101130007A01BE016F5F7F4F0E94190821E030E005
:1011400002C0220F331F1A95E2F719812123F701FC
:1011500020830F90DF91CF911F91FF90EF90089522
:10116000EF92FF920F931F93CF93DF930F92CDB720
:10117000DEB7082FE62E142FF22E442379F11982C0
:10118000BE016F5F7F4F0E941908882339F18E2DB1
:1011900090E0811B9109019661E070E002C0660F4A
:1011A000771F1A95E2F761507040082E02C0660F53
:1011B000771F0A94E2F7162F2F2D30E0A90102C005
:1011C000440F551F8A95E2F7CA01609599816923FA
:1011D0008123682B6983802F0E9440080F90DF9144
:1011E000CF911F910F91FF90EF900895FF920F9371
:1011F0001F93CF93DF930F92CDB7DEB7182F062F33
:10120000F42EBE016F5F7F4F0E941908FF2051F03E
:1012100081E090E002C0880F991F0A95E2F769818A
:10122000682B0AC061E070E002C0660F771F0A9564
:10123000E2F76095898168236983812F0E944008C5
:101240000F90DF91CF911F910F91FF900895EF9232
:10125000FF920F931F93CF93C82FE62E8A01662328
:1012600041F180ED0E945B058C2F0E94F605FF2462
:10127000EE0CFF1C1E141F04D4F4C0E0EC2FF0E0B1
:10128000EE0FFF1FE00FF11F81810E94F605EC2F8A
:10129000EF5FF0E0EE0FFF1FE00FF11F80810E9473
:1012A000F605CE5F8C2F90E08E159F053CF30E94D3
:1012B000E605CF911F910F91FF90EF900895962F23
:1012C000682F6F7141116062911160648DE60E9418
:1012D00040080895682F8EE60E94400808958F9276
:1012E0009F92AF92BF92CF92DF92EF92FF920F93B5
:1012F0001F93CF93DF936C017B01942ED22F842F09
:1013000060E040E00E945F098D2F0E946A09E114AD
:10131000F104A1F100E010E08824689484F8AA2484
:10132000BB246894B0F8C8014096E816F90618F492
:10133000CE2DC01B01C0C82D8C2F90E095012D1B18
:1013400031092817390714F4CD2FC195A601400F94
:10135000511F8FE66C2F0E94D7070C0F111D0E1521
:101360001F0560F4DC0F09F49394892D60E040E0E0
:101370000E945F098D2F0E946A09D5CFDF91CF911E
:101380001F910F91FF90EF90DF90CF90BF90AF90A3
:101390009F908F9008952F923F924F925F926F92FD
:1013A0007F928F929F92AF92BF92CF92DF92EF92F5
:1013B000FF920F931F93CF93DF932C016B01942E19
:1013C000D22F802E842F60E040E00E945F098D2F95
:1013D0000E946A09002339F080E190E00E945416CF
:1013E000282E392E02C022243324EE2039F080E149
:1013F00090E00E945416A82EB92E02C0AA24BB2445
:10140000C114D10409F46AC000E010E06624772416
:10141000689470F8FF24C8014096C816D90618F4DD
:10142000CC2DC01B01C0C0E18C2F90E093012D1B7F
:1014300031092817390714F4CD2FC195EE2071F02A
:10144000CC2379F0F201E00FF11FD5018F2D94919B
:101450009D938F5F31968C17D1F703C05201A00E78
:10146000B11E8FE66C2FA5010E941E08882029F16D
:101470002114310411F1892D6F2D4F2D0E945F0928
:101480008D2F0E946A098FE66C2FA1010E94D70759
:10149000C501B1014C2F5F2D0E946218282F392FF2
:1014A0002115310551F0C1010E94EA16EE2011F11B
:1014B000C5010E94EA1680E020C00C0F111D0C151A
:1014C0001D0560F4DC0F09F49394892D6F2D4F2DC9
:1014D0000E945F098D2F0E946A099DCF882019F014
:1014E000C1010E94EA16EE2039F0C5010E94EA16F9
:1014F00081E003C080E001C081E0DF91CF911F91C6
:101500000F91FF90EF90DF90CF90BF90AF909F90A2
:101510008F907F906F905F904F903F902F900895A5
:101520002F923F924F925F926F927F929F92AF92D3
:10153000BF92CF92DF92EF92FF920F931F93CF93C0
:10154000DF936C012B01942E442309F481C088E0C1
:1015500090E00E945416682E792E7CC0C0E0D0E046
:10156000222433249920C9F0F601EC0FFD1F0491C9
:10157000CE0101968C0D9D1DFC01F4900F2EF3E021
:10158000AF2EBB24F02DAC0EBD1E9E012E5F3F4F33
:101590002C0D3D1DF90114910DC0F601EC0FFD1F3E
:1015A0000081F18012810F2EF3E0AF2EBB24F02DCD
:1015B000AC0EBD1E112379F19920E9F0133038F0FB
:1015C000C301612F70E00E948317682E792E212FAE
:1015D00030E02115310591F0D301C101A6014A0D7A
:1015E0005B1DFA01E80FF91FE491ED930196821754
:1015F0009307B8F303C036016A0C7B1CC12FD0E0FF
:10160000C301BE01402F2F2D01E0EE240E94CB0923
:10161000882329F516C0992039F0E5012196F601B5
:10162000EA0DFB1DE49106C0F601EA0DFB1DE08109
:10163000E5012196E13029F488E362E30E94400845
:1016400010C09920C9F0C3010E94EA1680E017C0BB
:10165000662477244114510409F080CF06C0CA0DD6
:10166000DB1DC415D50508F47DCF992039F0C301E1
:101670000E94EA1681E003C080E001C081E0DF91B2
:10168000CF911F910F91FF90EF90DF90CF90BF907F
:10169000AF909F907F906F905F904F903F902F9072
:1016A000089582E762E048E951E00E94D7079091EF
:1016B000980180919901392F20E090E0822B932BA3
:1016C0000895AC0184E70E94D70708958AE368E98A
:1016D00071E00E9419088091980108958AE662E0FD
:1016E00041E00E94F608089580E066E046E028E9BF
:1016F00031E00E945008809198010895282F80E0E1
:1017000066E046E00E94B008089581E066E046E0A9
:1017100028E931E00E945008809198010895282F0F
:1017200081E066E046E00E94B008089582E066E04D
:1017300046E028E931E00E94500880919801089520
:10174000282F82E066E046E00E94B00808958BE60C
:1017500066E040E00E94F60808958BE666E041E00E
:101760000E94F608089585E766E046E028E931E042
:101770000E9450089091980181E0943309F080E034
:1017800008950E94550583E08A95F1F7000087EAE5
:1017900091E60197F1F700C000000E94A70B83ECCF
:1017A00099E00197F1F700C000008BE662E043E0AA
:1017B00021E00E94B0088AE162E043E023E00E9459
:1017C000B00889E164E00E9440088BE164E042E0F7
:1017D00023E00E94B0088CE164E042E020E00E9437
:1017E000B00808958F929F92AF92BF92CF92DF92EE
:1017F000EF92FF920F931F93CF93DF93EC016B0156
:101800005A0149018BE36EE048E951E00E94D70795
:101810009091980180919901392F20E090E0822BDE
:10182000932B9983888390919A0180919B01392F02
:1018300020E090E0822B932BF6019183808390919E
:101840009C0180919D01392F20E090E0822B932B09
:10185000F501918380839091A0018091A101392F9E
:1018600020E090E0822B932BF401918380833091D0
:10187000A2012091A301932F80E030E0822B932BD3
:10188000F801918380833091A4012091A501932FC9
:1018900080E030E0822B932BF70191838083DF91EE
:1018A000CF911F910F91FF90EF90DF90CF90BF905D
:1018B000AF909F908F9008952F923F924F925F929A
:1018C0006F927F928F929F92AF92BF92CF92DF9250
:1018D000EF92FF920F931F93CF93DF93CDB7DEB7B5
:1018E0002C970FB6F894DEBF0FBECDBF6C015B0125
:1018F0004A013901280117011A8219821C821B82B0
:101900001E821D8218861F821A8619861C861B86D7
:10191000CE010196BE016D5F7F4FAE014B5F5F4F01
:101920009E01295F3F4F8E01075F1F4F0F2EFBE087
:10193000EF2EFF24F02DEC0EFD1E0E94F20B6981AC
:101940007A81882777FD8095982F0E946A1420E07D
:1019500030E040E858E30E944E15DC01CB01F6016F
:1019600080839183A283B3836B817C81882777FDF9
:101970008095982F0E946A1420E030E040E858E3F8
:101980000E944E15DC01CB01F50180839183A28377
:10199000B3836D817E81882777FD8095982F0E9483
:1019A0006A1420E030E040E858E30E944E15DC0164
:1019B000CB01F40180839183A283B3836F81788507
:1019C000665D7F4F882777FD8095982F0E946A1467
:1019D00023E333E343E851E40E940014DC01CB012C
:1019E000F30180839183A283B38369857A856950EB
:1019F0007040882777FD8095982F0E946A1423E312
:101A000033E343E851E40E940014DC01CB01F2010E
:101A100080839183A283B3836B857C85635E7F4FD4
:101A2000882777FD8095982F0E946A1423E333E37B
:101A300043E851E40E940014DC01CB01F1018083F2
:101A40009183A283B3832C960FB6F894DEBF0FBEAA
:101A5000CDBFDF91CF911F910F91FF90EF90DF905D
:101A6000CF90BF90AF909F908F907F906F905F903E
:101A70004F903F902F90089589B7846089BF8AE680
:101A800067E041E00E94F608089589B78B7F89BF1F
:101A90008AE667E040E00E94F6080895AF92BF92A0
:101AA000CF92DF92EF920F931F93CF93DF93CDB737
:101AB000DEB7C059D0400FB6F894DEBF0FBECDBF21
:101AC000EAE6F0E08081806380838BE667E041E0B6
:101AD0000E94F6088BE49DE10197F1F700C0000039
:101AE0000E94A70B80E060E040E00E945F090E9436
:101AF000740BC82E0E94850B182F0E94960B85E24E
:101B00006FE70E9440088AE665E040E00E94F60820
:101B100085E268E60E9440088AE661E041E00E94B2
:101B2000F60887E893E10197F1F700C0000084EE22
:101B300091E069E877E040E020E001E0EE24E39402
:101B40000E94CB09813009F09DC184E291E060ECF4
:101B500070E041E00E94900A882309F495C18BE669
:101B600062E043E023E00E94B00888E362E10E9463
:101B7000400889E164E00E9440088AE165E043E0B2
:101B800021E00E94B0088AE162E043E023E00E9485
:101B9000B0088BE164E042E023E00E94B00880E7F7
:101BA00063E00E94400881E760E00E94400880E016
:101BB00060E040E00E94F6088C2D0E947E0B812F91
:101BC0000E948F0B8AE50E94A00B83E161E040E058
:101BD00050E00E94270985E161E040E050E00E946A
:101BE000270987E161E040E050E00E942709CC240A
:101BF000DD2425EF30E04C2D5901F601E20FF31FF3
:101C0000E491A1E0B0E0AC0FBD1FAC0DB11DEC93B1
:101C10004F5F0894C11CD11C93E09C1560F76B8149
:101C200050E0862F90E003964817590724F3CE0121
:101C3000049670E049812A8101E0EE240E94CB09DC
:101C400040E0F501EC0DFD1DE491A1E0B0E0AC0F2A
:101C5000BD1FA40FB11DEC934F5F0894C11CD11C94
:101C6000443078F36B81242F30E0862F90E0039688
:101C70002817390734F3CE01049670E049812A8190
:101C800001E0EE240E94CB098AE662E041E021E017
:101C90000E94B0080E94510B682F84E7AE014F5E8E
:101CA0005F4F0E94D7078FE162E00E94400881E207
:101CB0006CE90E94400880E260E50E94400882E2F0
:101CC00060E00E9440088AE662E041E00E94F60877
:101CD0008AE666E041E00E94F6080E943C0D8AE632
:101CE00063E041E00E94F6080E94510B182F8330F8
:101CF000D8F3DCC0F501EC0DFD1DE491A1E0B0E0EE
:101D0000AC0FBD1FA40FB11DEC934F5F0894C11C15
:101D1000D11C443078F36B81242F30E0862F90E083
:101D200003962817390734F3CE01049670E04981F1
:101D30002A8101E0EE240E94CB0940E0F501EC0D80
:101D4000FD1DE491A1E0B0E0AC0FBD1FA40FB11DDB
:101D5000EC934F5F0894C11CD11C443078F36B8125
:101D6000242F30E0862F90E003962817390734F3AC
:101D7000CE01049670E049812A8101E0EE240E94A0
:101D8000CB0940E0F501EC0DFD1DE491A1E0B0E0D0
:101D9000AC0FBD1FA40FB11DEC934F5F0894C11C85
:101DA000D11C443078F36B81242F30E0862F90E0F3
:101DB00003962817390734F3CE01049670E0498161
:101DC0002A8101E0EE240E94CB09CE014196612FC9
:101DD0000E94610B40E0F501EC0DFD1DE491A1E0D6
:101DE000B0E0AC0FBD1FA40FB11DEC934F5F089482
:101DF000C11CD11C443078F36B81242F30E0862F36
:101E000090E003962817390734F3CE01049670E06A
:101E100049812A810E946F090E94510B682F8330EB
:101E2000D8F3CE0141960E94610BF601EB50FF4FB3
:101E300040E001C031968491A1E0B0E0AC0FBD1F3D
:101E4000A40FB11D8C934F5F4430A0F36B81842F9E
:101E500090E0262F30E02D5F3F4F8217930754F319
:101E6000CE01049670E049812A8101E0EE240E94AF
:101E7000CB090E94450D8AE662E041E00E94F60827
:101E800080E003C081E001C082E0C057DF4F0FB6A1
:101E9000F894DEBF0FBECDBFDF91CF911F910F91A0
:101EA000EF90DF90CF90BF90AF90089540E022CFA9
:101EB000AF92BF92CF92DF92EF92FF920F931F9358
:101EC000CF93DF93EC017B016A015901009721F464
:101ED000C091A601D091A701788160E08981680F47
:101EE000711D882777FD8095982F0E946A1420E045
:101EF00030E040E858E30E944E15DC01CB01F701C9
:101F000080839183A283B3837C8160E08D81680F9D
:101F1000711D882777FD8095982F0E946A1420E014
:101F200030E040E858E30E944E15DC01CB01F60199
:101F300080839183A283B383788560E08985680F6D
:101F4000711D882777FD8095982F0E946A1420E0E4
:101F500030E040E858E30E944E15DC01CB01F5016A
:101F600080839183A283B3837C8560E08D85680F35
:101F7000711D882777FD8095982F0E946A1420E0B4
:101F800030E040E858E30E944E15DC01CB01F80137
:101F900080839183A283B383DF91CF911F910F91AF
:101FA000FF90EF90DF90CF90BF90AF9008952F9269
:101FB0003F924F925F926F927F928F929F92AF92D9
:101FC000BF92CF92DF92EF92FF920F931F93CF9326
:101FD000DF93CDB7DEB760970FB6F894DEBF0FBEC4
:101FE000CDBF2B013C0129833A834B835C83ED8277
:101FF000FE820F83188776016501988A8F86CA0151
:10200000B9010E942313B62EA72E982E892EC30144
:10201000B201A30192010E942313362E272E898735
:102020009A87C301B20159854A85032D122D252FA8
:10203000342FA90198010E944E156B877C878D87EC
:102040009E878B2D9A2DA92DB82DBC01CD012D81F8
:102050003E814F8158850E944E152B013C013985E8
:102060002A85802F912FA32FB22FBC01CD01A7016C
:1020700096010E944E159B01AC01C301B2010E9462
:1020800022132B013C0169817A818B819C810B2D6C
:102090001A2D292D382DA90198010E944E159B015A
:1020A000AC01FB85EC857D856E858F2F9E2FA72F3C
:1020B000B62FBC01CD010E94231320E030E040E8A0
:1020C0005FE30E9422139B01AC01C301B2010E9495
:1020D000AD13DC01CB01EFA1F8A580839183A2832E
:1020E000B383802F912FA92DB82DBC01CD01A7015D
:1020F00096010E944E152B013C016D817E818F81DE
:10210000988559854A85032D122D252F342FA90135
:1021100098010E944E159B01AC01C301B2010E94BF
:1021200023130E948713DC01CB01B058EDA1FEA15F
:1021300080839183A283B3836D817E818F81988513
:102140009B01AC010E942313A70196010E944E152A
:102150002B013C0169817A818B819C8159854A855B
:10216000252F342FA90198010E944E159B01AC0127
:10217000C301B2010E9422132B013C01C701B60129
:10218000A70196010E942313A70196010E944E15F4
:102190009B01AC01FB85EC857D856E858F2F9E2F85
:1021A000A72FB62FBC01CD010E94231320E030E001
:1021B00040E85FE30E9422139B01AC01C301B2011E
:1021C0000E94AD13DC01CB01EF85F88980839183F8
:1021D000A283B38360960FB6F894DEBF0FBECDBF67
:1021E000DF91CF911F910F91FF90EF90DF90CF90F3
:1021F000BF90AF909F908F907F906F905F904F9027
:102200003F902F900895AF92BF92CF92DF92EF92BE
:10221000FF920F931F93CF93DF937C016B015A01C1
:10222000890180910B0190910C0120910D012223D5
:1022300019F48A329105C8F310920D010E94660BC1
:1022400080930A010E94510B90930C0180930B0123
:1022500020910A0124FD04C034E08030930721F46A
:102260000E946E0B80E026C021FF23C08A329105B8
:1022700048F40E94510B90930C0180930B018A3219
:102280009105B8F3C8EAD1E0CE016AE20E94610B81
:1022900080910B0190910C018A9790930C0180938F
:1022A0000B01CE01B701A60195010E94580F81E0F4
:1022B00001C080E0DF91CF911F910F91FF90EF90CF
:1022C000DF90CF90BF90AF9008951F920F920FB6FE
:1022D0000F9211248F9381E080930D018F910F90C5
:1022E0000FBE0F901F9018951F920F920FB60F926E
:1022F0000BB60F9211242F933F938F939F93EF93DD
:10230000FF933BB12CB1809155018F5F8F719091FC
:102310005401891751F0932F987180935501E8E586
:10232000F1E0E80FF11D208301C092E0909353018A
:10233000FF91EF919F918F913F912F910F900BBE45
:102340000F900FBE0F901F9018951F920F920FB60F
:102350000F920BB60F9211248F939F93EF93FF93DD
:102360009091570180915601981769F0809156011C
:102370008F5F8F7180935601E8E7F1E0E80FF11D60
:1023800080818CB901C05598FF91EF919F918F91F9
:102390000F900BBE0F900FBE0F901F9018951092CC
:1023A0005701109256011092550110925401992331
:1023B0001CF422E02BB99F779093900089B988E9AB
:1023C0008AB986E080939500089590915501809197
:1023D0005401981791F0809154018F5F8F71809311
:1023E0005401E8E5F1E0E80FF11D2081309153013F
:1023F000932F80E0820F911D089580E091E0089571
:10240000209157012F5F2F71909156012917E1F309
:10241000E8E7F1E0E20FF11D808320935701559A20
:102420000895CF93DF93EC018881882331F02196C2
:102430000E94001289918823D9F7DF91CF910895E6
:10244000CF93DF93EC01FC018491882341F0219626
:102450000E940012FE01219684918823C9F7DF9122
:10246000CF910895809155012091540190E04F96AD
:10247000821B91096FE170E00E940B160895809114
:1024800054018093550108951F920F920FB60F9239
:102490000BB60F9211242F933F938F939F93EF933B
:1024A000FF9330919B0020919C00809110018F5FE1
:1024B0008F7190910F01891751F0932F987180932C
:1024C0001001E3E1F1E0E80FF11D208301C092E08B
:1024D00090930E01FF91EF919F918F913F912F91DA
:1024E0000F900BBE0F900FBE0F901F9018951F926C
:1024F0000F920FB60F920BB60F9211248F939F93EA
:10250000EF93FF939091120180911101981771F050
:10251000809111018F5F8F7180931101E3E3F1E0EE
:10252000E80FF11D808180939C0005C0EAE9F0E08E
:1025300080818F7D8083FF91EF919F918F910F908C
:102540000BBE0F900FBE0F901F90189510921201A6
:10255000109211011092100110920F01992324F48E
:1025600022E020939B009F7790939800809399009E
:1025700088E980939A0086E080939D000895909169
:10258000100180910F01981791F080910F018F5FDA
:102590008F7180930F01E3E1F1E0E80FF11D2081DD
:1025A00030910E01932F80E0820F911D089580E0FD
:1025B00091E00895209112012F5F2F7190911101E8
:1025C0002917E1F3E3E3F1E0E20FF11D80832093AB
:1025D0001201EAE9F0E08081806280830895CF9360
:1025E000DF93EC018881882331F021960E94DA1272
:1025F00089918823D9F7DF91CF910895CF93DF9305
:10260000EC01FC018491882341F021960E94DA12AA
:10261000FE01219684918823C9F7DF91CF91089517
:102620008091100120910F0190E04F96821B91093B
:102630006FE170E00E940B16089580910F01809366
:10264000100108955058BB27AA270ED0E6C1D7D154
:1026500030F0DCD120F031F49F3F11F41EF496C12C
:102660000EF4E095E7FB8CC1E92FE8D180F3BA17AF
:10267000620773078407950718F071F49EF500C28E
:102680000EF4E0950B2EBA2FA02D0B01B90190018D
:102690000C01CA01A0011124FF27591B99F0593FD1
:1026A00050F4503E68F11A16F040A22F232F342F19
:1026B0004427585FF3CF469537952795A795F04067
:1026C0005395C9F77EF41F16BA0B620B730B840B7C
:1026D000BAF09150A1F0FF0FBB1F661F771F881F34
:1026E000C2F70EC0BA0F621F731F841F48F487958C
:1026F00077956795B795F7959E3F08F0B3CF93957B
:10270000880F08F09927EE0F9795879508959F9366
:102710009F77EEE389379E0720F4ECE8F0E05ED186
:1027200009C013D19058A2EA2AED3FE049EC5FE3DB
:102730009BDF73D10F9007FC9058089560D158F03B
:1027400080E891E009F49EEF61D128F040E851E083
:1027500059F45EEF09C01AC193C1E92FE0786ED138
:1027600068F3092E052AC1F32617370748075907CA
:1027700038F00E2E07F8E02569F0E025E0640AC085
:10278000EF6307F8009407FADB01B9019D01DC0152
:10279000CA01AD01EF9343D040D10AD05F915523D8
:1027A00031F02BED3FE049E450FD49EC4CCF08956A
:1027B000DF93DD27B92FBF7740E85FE316161706D2
:1027C00048075B0710F4D92F62D19F938F937F93B3
:1027D0006F9309D2E0EAF0E0DCD01FD12F913F9156
:1027E0004F915F9167D1DD2349F09058A2EA2AED1D
:1027F0003FE049EC5FE3D0785D2736DFDF910DC124
:102800000CD00BC103D140F0FAD030F021F45F3F7F
:1028100019F0B6C0511135C1B9C010D198F3992340
:10282000C9F35523B1F3951B550BBB27AA27621794
:102830007307840738F09F5F5F4F220F331F441FD9
:10284000AA1FA9F333D00E2E3AF0E0E830D0915011
:102850005040E695001CCAF729D0FE2F27D0660FFE
:10286000771F881FBB1F261737074807AB07B0E83D
:1028700009F0BB0B802DBF01FF2793585F4F2AF053
:102880009E3F510568F07CC0FCC05F3FECF3983E72
:10289000DCF3869577956795B795F7959F5FC9F7B0
:1028A000880F911D9695879597F90895E1E0660F39
:1028B000771F881FBB1F621773078407BA0720F0B2
:1028C000621B730B840BBA0BEE1F88F7E09508951B
:1028D000E89409C097FB3EF49095809570956195BA
:1028E0007F4F8F4F9F4F9923A9F0F92F96E9BB2770
:1028F0009395F695879577956795B795F111F8CFEC
:10290000FAF4BB0F11F460FF1BC06F5F7F4F8F4F56
:102910009F4F16C0882311F096E911C0772321F04C
:102920009EE8872F762F05C0662371F096E8862FE4
:1029300070E060E02AF09A95660F771F881FDAF73B
:10294000880F9695879597F90895DF93CF931F93F6
:102950000F938B01EC01EDECF0E01BD05ED0980101
:10296000AE018B01EC0160E070E080E89FE36ADE7D
:10297000FCD09801AE010F911F91CF91DF919AC0C9
:1029800097F99F6780E870E060E008959FEF80EC22
:102990000895DF93CF931F930F93FF92EF92DF92EF
:1029A0007B018C01689405C0DA2EEF0183D0FE0113
:1029B000E894A5912591359145915591AEF3EF019C
:1029C00053DEFE019701A801DA9479F7DF90EF90CA
:1029D000FF900F911F91CF91DF9108959F938F9357
:1029E0007F936F93FF93EF939B01AC0157D0EF91CF
:1029F000FF91CFDF2F913F914F915F914FC0002406
:102A00000A941616170618060906089500240A9453
:102A100012161306140605060895092E0394000CD9
:102A200011F4882352F0BB0F40F4BF2B11F460FF68
:102A300004C06F5F7F4F8F4F9F4F089557FD905891
:102A4000440F551F59F05F3F71F04795880F97FB72
:102A5000991F61F09F3F79F087950895121613062C
:102A60001406551FF2CF4695F1DF08C0161617065B
:102A70001806991FF1CF8695710561050894089590
:102A8000E894BB2766277727CB0197F908959B0128
:102A9000AC0160E070E080E89FE3B2CE0BD0BDCF28
:102AA000AEDF28F0B3DF18F0952309F069CF6ECFC1
:102AB0001124E7CFC3DFA0F3959FD1F3950F50E02A
:102AC000551F629FF001729FBB27F00DB11D639FE0
:102AD000AA27F00DB11DAA1F649F6627B00DA11D86
:102AE000661F829F2227B00DA11D621F739FB00D2C
:102AF000A11D621F839FA00D611D221F749F33279C
:102B0000A00D611D231F849F600D211D822F762F34
:102B10006A2F11249F5750408AF0E1F088234AF031
:102B2000EE0FFF1FBB1F661F771F881F915050407D
:102B3000A9F79E3F510570F023CFA3CF5F3FECF381
:102B4000983EDCF3869577956795B795F795E79569
:102B50009F5FC1F7FE2B880F911D9695879597F97A
:102B6000089511F40EF412CF41C070DFD0F3992311
:102B7000D9F3CEF39F57550B87FF46D00024A0E62C
:102B800040EA900180585695979528F4805C660F2E
:102B9000771F881F20F026173707480730F4621B7D
:102BA000730B840B202931294A2BA695179407947F
:102BB000202531254A2758F7660F771F881F20F0F8
:102BC00026173707480730F4620B730B840B200D70
:102BD000311D411DA09581F7B901842F9158880FAF
:102BE0009695879508959B01AC0158CF9F3F31F092
:102BF000915020F4879577956795B795880F911D2B
:102C00009695879597F9089591505040660F771FD4
:102C1000881FD2F7089597FB092E07260AD077FD63
:102C200004D00CD006D000201AF4709561957F4F27
:102C30000895F6F7909581959F4F0895AA1BBB1BA9
:102C400051E107C0AA1FBB1FA617B70710F0A61BAC
:102C5000B70B881F991F5A95A9F780959095BC01CD
:102C6000CD010895EF920F931F93CF93322FC02F72
:102C700047FF02C0A4E101C0A4E0E42FFF27E7FD65
:102C8000F095F7FF03C0F095E195FF4F4C2F512FC2
:102C90002E2F032FEA2E0E9478188C2F912FCF9180
:102CA0001F910F91EF900895CF93DF93AC01823085
:102CB000910510F442E050E0E091EA01F091EB015F
:102CC00020E030E0A0E0B0E024C080819181841752
:102CD0009507D0F08417950771F48281938110973E
:102CE00029F013969C938E9312972CC09093EB012E
:102CF0008093EA0127C02115310519F08217930747
:102D000018F49C01BD01EF0192818381DF01E92F5D
:102D1000F82F3097D1F621153105F9F0C901841B40
:102D2000950B8430910580F48A819B816115710532
:102D300021F0FB019383828304C09093EB01809385
:102D4000EA01FE01329642C0FE01E80FF91F4193ED
:102D5000519302979983888339C08091E8019091BB
:102D6000E901009741F4809105019091060190934B
:102D7000E9018093E80120910301309104012115BC
:102D8000310541F42DB73EB78091070190910801BC
:102D9000281B390BE091E801F091E901E217F307F4
:102DA00098F42E1B3F0B2417350770F0CA010296CA
:102DB0002817390748F08E0F9F1F9093E9018093E1
:102DC000E8014193519302C0E0E0F0E0CF01DF91D0
:102DD000CF9108950F931F93CF93DF939C0100979A
:102DE00009F48CC0DC01129713961C921E92129764
:102DF0006091EA017091EB016115710589F48D9183
:102E00009C911197820F931F2091E8013091E90165
:102E10002817390769F5B093E901A093E8016EC05E
:102E2000FB0140E050E001C0FC01EA17FB0730F471
:102E300082819381AF010097B9F71FC0E901229702
:102E4000FB83EA8308811981C901800F911F8E17C6
:102E50009F0759F480819181800F911F0296998379
:102E60008883828193819B838A834115510529F44C
:102E7000B093EB01A093EA0141C0FA01B383A283AE
:102E8000C191D191EC0FFD1FAE17BF0781F4F9017D
:102E9000929182918C0F9D1F0296DA0111969C935C
:102EA0008E938281938113969C938E931297E0E088
:102EB000F0E002C0FB01BC01DB0112968D919C91F8
:102EC00013970097B9F7CB0102962D913C9111977A
:102ED000820F931F2091E8013091E90128173907EB
:102EE00069F4309729F41092EB011092EA0102C0C4
:102EF000138212827093E9016093E801DF91CF9110
:102F00001F910F9108958F929F92AF92BF92CF928F
:102F1000DF92EF92FF920F931F93CF93DF9300D036
:102F2000CDB7DEB78C01009729F4CB010E9454166F
:102F30008C01B8C0DC01A60FB71FFC013297AE1799
:102F4000BF0708F4ADC02081318126173707B0F0E4
:102F50002530310508F4A6C0C901049786179707E4
:102F600008F4A0C022503040261B370B2D933D9310
:102F7000CD01718360830E94EA1694C06B01C21A6E
:102F8000D30A5C01A20EB31EE091EA01F091EB01BD
:102F900040E050E08824992449C0EA15FB05E1F59A
:102FA000E080F180C70102968C159D05A8F1A7016C
:102FB0004C195D09CA0102960F2EFEEFCF2EFFEFCE
:102FC000DF2EF02DC00ED11E8530910578F0828164
:102FD000938113969C938E93129711965C934E93C4
:102FE000F601718360839A2F8B2F0AC0C901029664
:102FF0008E0D9F1DD60111969C938E939281838195
:103000008114910421F0F401928383834BC0909347
:10301000EA018093EB0146C08081918148175907EE
:1030200008F4AC01828193814F01FC01309709F0D3
:10303000B4CF8091E8019091E9018A159B05E9F4EC
:1030400046175707D0F4809103019091040100972F
:1030500041F48DB79EB72091070130910801821B82
:10306000930BA817B907E0F4B093E901A093E80126
:10307000F80132977183608315C0CB0129833A83AD
:103080000E9454167C0129813A81009749F0B801C9
:10309000A9010E946F18C8010E94EA16870102C0A8
:1030A00000E010E0C8010F900F90DF91CF911F91C9
:1030B0000F91FF90EF90DF90CF90BF90AF909F90D7
:1030C0008F900895FB01DC0104C08D91019080195F
:1030D00021F441505040C8F7881B990B0895FB011B
:1030E000DC0102C001900D9241505040D8F7089584
:1030F0006F927F928F929F92AF92BF92CF92DF9208
:10310000EF92FF920F931F93CF93DF93CDB7DEB76C
:1031100029970FB6F894DEBF0FBECDBF6A01122FFC
:10312000F02E2BE3201718F0B02EB39402C03CE32E
:10313000B32EAE014F5F5F4F27E00B2D0E94F119B8
:10314000BC01A981B0E0CD018970907081309105FA
:1031500031F0E1FC06C0E0FE06C040E205C04DE2F1
:1031600003C04BE201C040E0A3FF36C0442311F08E
:1031700084E001C083E0811710F4181B01C010E047
:10318000E4FC0BC0912FF60180E202C081939150C4
:103190009923E1F7C10ED11C10E0442319F0F60188
:1031A00041936F01E2FE05C08EE4F601808391E455
:1031B00004C08EE6F601808391E69183828383E0EA
:1031C00090E0C80ED91E812FF60190E202C09193C3
:1031D00081508823E1F73AC0A2FF3FC0442311F099
:1031E00084E001C083E0811710F4181B01C010E0D7
:1031F000E4FC0BC0912FF60180E202C08193915054
:103200009923E1F7C10ED11C10E0442319F0F60117
:1032100041936F01E2FE07C089E4F60180838EE4EA
:10322000818386E406C089E6F60180838EE6818389
:1032300086E6828383E090E0C80ED91E812FF601D6
:1032400090E202C0919381508823E1F7C10ED11C16
:10325000F60110828EEF9FEFAFC021E030E04423F3
:1032600011F420E030E0161617061CF4CB0101968D
:1032700002C081E090E0280F391FFF2021F08F2D40
:1032800090E0019602C080E090E0820F931F212F12
:1032900030E0821793071CF4512F581B01C050E0F7
:1032A0008E2D90E09C0120713070E4FC0DC0E3FC99
:1032B0000BC0852FF60190E202C0919381508823C4
:1032C000E1F7C50ED11C50E0442319F0F6014193FB
:1032D0006F012115310559F4852FF60190E302C0E5
:1032E000919381508823E1F7C50ED11C50E0B60EB2
:1032F0004A8120E1622E712C6A227B22A4FF03C046
:10330000413309F4BA941B142CF48B2D893018F036
:1033100088E001C081E09B0177FF02C020E030E03F
:10332000A0E0B0E09EE2E92E4B01881A9108CB01A3
:10333000821B930B8E010F5F1F4F080F191F8F2DDC
:1033400090E0AA24BB24A81AB90AFFEF2F3F3F0739
:1033500019F4F601E1926F016217730744F08216C7
:1033600093062CF4F801EA0FFB1F818101C080E372
:103370002150304011962A153B0524F0F601819327
:103380006F01E3CF2617370741F4463328F445335E
:1033900021F46114710409F481E3F6018193852F0E
:1033A000DF0190E202C09D9381508823E1F7E50F91
:1033B000F11D108280E090E029960FB6F894DEBFF0
:1033C0000FBECDBFDF91CF911F910F91FF90EF9076
:1033D000DF90CF90BF90AF909F908F907F906F9035
:1033E0000895283008F027E03327DA01990F311DBE
:1033F00087FD916000966105710539F432602E5F9A
:103400003D9330E32A95E1F708959F3F30F08038EF
:103410007105610509F03C5F3C5F3D93913008F018
:103420008068911DDF93CF931F930F93FF92EF92CC
:10343000192F987F9695E92F96959695E90FFF2776
:10344000E953F64F99273327EE24FF24A701E7011C
:1034500005900894079428F4360FE71EF81E491FBC
:10346000511D660F771F881F991F0694A1F70590BD
:10347000079428F4E70EF81E491F561FC11D770F49
:10348000881F991F661F0694A1F70590079428F4DA
:10349000F80E491F561FC71FD11D880F991F661FA1
:1034A000771F0694A1F70590079420F4490F561F43
:1034B000C71FD81F990F661F771F881F0694A9F78B
:1034C00084911095177041F0D695C79557954795FB
:1034D000F794E7941A95C1F7EDE6F9E06894159032
:1034E000159135916591959105907FE27395E1185D
:1034F000F10A430B560BC90BD009C0F7E10CF11EC2
:10350000431F561FC91FD01D7EF4703311F48A95D6
:10351000E6CFE894015030F0080F0AF400270217B4
:1035200008F4202F2395022F7A3328F079E37D9336
:103530002A95E9F710C07D932A9589F60694979508
:103540006795379517951794E118F10A430B560BB9
:10355000C90BD00998F023957E9173957A3308F0C2
:1035600070E37C932013B8F77E9170617D9330F007
:10357000839571E37D9370E32A95E1F71124EF9031
:10358000FF900F911F91CF91DF91992787FD909523
:063590000895F894FFCF3E
:0A3596000D0A000000EC0120000007
:00000001FF
